:04000000FEEF7FF0A0
:1010000000AE1C0000BE18F01C801A0000A01B00DF
:10101000000000000000000000000000000240008E
:10102000070102400000000020EED1F010EE60F059
:10103000040E6F006FFFE3FFE806FBE2000E000105
:10104000666F000E656F000E686F000E676F7FEFB2
:1010500008F067510124D96E68510220DA6E6051A0
:10106000DE18D8A436EF08F038EF08F07DEF08F06E
:10107000675101242B6E685102202C6E010E2B2427
:10108000D96E000E2C20DA6E6151DE18D8A44BEF19
:1010900008F04DEF08F07DEF08F0675101242B6E4A
:1010A000685102202C6E020E2B24D96E000E2C20CB
:1010B000DA6E6251DE18D8A460EF08F062EF08F033
:1010C0007DEF08F0675101242B6E685102202C6ED1
:1010D000030E2B24D96E000E2C20DA6E6351DE181D
:1010E000D8A475EF08F077EF08F07DEF08F067C03F
:1010F00065F068C066F090EF08F0674B682BFB0E58
:1011000003242B6EFF0E04202C6E2B50675D2C5099
:101110006859D8A08EEF08F090EF08F029EF08F09A
:1011200065C093F066C094F093510124D96E945138
:101130000220DA6EDF50696F935101242B6E9451B7
:1011400002202C6E010E2B24D96E000E2C20DA6E9C
:10115000DF506A6F935101242B6E945102202C6E44
:10116000020E2B24D96E000E2C20DA6EDF506B6F2E
:10117000935101242B6E945102202C6E030E2B24CC
:10118000D96E000E2C20DA6EDF506C6F040E9327A0
:10119000000E9423935101242B6E945102202C6E47
:1011A000010E2B24D96E000E2C20DA6EDF502D6E2E
:1011B0002DC02EF02F6A306A316A30C031F02FC056
:1011C00030F02EC02FF02E6A93510124326E9451CC
:1011D0000220336E020E3224D96E000E3320DA6EF6
:1011E000DF50346E34C035F0366A376A386A36C03C
:1011F00038F035C037F0366A356A93510124396EBC
:10120000945102203A6E030E3924D96E000E3A2012
:10121000DA6EDF503B6E3BC03CF03D6A3E6A3F6A8F
:101220003CC03FF03E6A3D6A3C6A35503C10406E1F
:1012300036503D10416E37503E10426E38503F10D0
:10124000436E2E504010446E2F504110456E30506A
:101250004210466E31504310476E93510124D96EAF
:1012600094510220DA6EDF50486E485044106D6F82
:1012700045506E6F46506F6F4750706F040E932746
:10128000000E942393510124D96E94510220DA6EFA
:10129000DF50756F935101242B6E945102202C6EF8
:1012A000010E2B24D96E000E2C20DA6EDF50766FE3
:1012B000935101242B6E945102202C6E020E2B248C
:1012C000D96E000E2C20DA6EDF50776F9351012417
:1012D0002B6E945102202C6E030E2B24D96E000E1F
:1012E0002C20DA6EDF50786F040E9327000E9423C3
:1012F00093510124D96E94510220DA6EDF50716F40
:10130000935101242B6E945102202C6E010E2B243C
:10131000D96E000E2C20DA6EDF50726F93510124CB
:101320002B6E945102202C6E020E2B24D96E000ECF
:101330002C20DA6EDF50736F935101242B6E945181
:1013400002202C6E030E2B24D96E000E2C20DA6E98
:10135000DF50746F040E9327000E942393510124E1
:101360002B6E945102202C6E010E2B24D96E000E90
:101370002C20DA6EDF502D6E2DC02EF02F6A306AD1
:10138000316A30C031F02FC030F02EC02FF02E6AFD
:1013900093510124326E94510220336E020E322496
:1013A000D96E000E3320DA6EDF50346E34C035F063
:1013B000366A376A386A36C038F035C037F0366A70
:1013C000356A93510124396E945102203A6E030E0E
:1013D0003924D96E000E3A20DA6EDF503B6E3BC0E6
:1013E0003CF03D6A3E6A3F6A3CC03FF03E6A3D6A5F
:1013F0003C6A35503C10406E36503D10416E3750BF
:101400003E10426E38503F10436E2E504010446ED6
:101410002F504110456E30504210466E31504310EF
:10142000476E93510124D96E94510220DA6EDF5039
:10143000486E48504410796F45507A6F46507B6F24
:1014400047507C6F040E9327000E94239351012480
:10145000D96E94510220DA6EDF502B6E2B507D6FC7
:101460007E6B020E9327000E942393510124D96EB4
:1014700094510220DA6EDF502B6E2B507F6F806B01
:10148000020E9327000E9423935101242B6E945146
:1014900002202C6E010E2B24D96E000E2C20DA6E49
:1014A000DF502D6E2DC02EF02F6A306A316A30C0A9
:1014B00031F02FC030F02EC02FF02E6A935101244E
:1014C000326E94510220336E020E3224D96E000E19
:1014D0003320DA6EDF50346E34C035F0366A376A46
:1014E000386A36C038F035C037F0366A356A9351FD
:1014F0000124396E945102203A6E030E3924D96EBC
:10150000000E3A20DA6EDF503B6E3BC03CF03D6A85
:101510003E6A3F6A3CC03FF03E6A3D6A3C6A3550D5
:101520003C10406E36503D10416E37503E10426EBA
:1015300038503F10436E2E504010446E2F504110D3
:10154000456E30504210466E31504310476E9351F5
:101550000124D96E94510220DA6EDF50486E485053
:101560004410816F4550826F4650836F4750846F9F
:10157000040E9327000E9423935101242B6E945153
:1015800002202C6E010E2B24D96E000E2C20DA6E58
:10159000DF502D6E2DC02EF02F6A306A316A30C0B8
:1015A00031F02FC030F02EC02FF02E6A935101245D
:1015B000326E94510220336E020E3224D96E000E28
:1015C0003320DA6EDF50346E34C035F0366A376A55
:1015D000386A36C038F035C037F0366A356A93510C
:1015E0000124396E945102203A6E030E3924D96ECB
:1015F000000E3A20DA6EDF503B6E3BC03CF03D6A95
:101600003E6A3F6A3CC03FF03E6A3D6A3C6A3550E4
:101610003C10406E36503D10416E37503E10426EC9
:1016200038503F10436E2E504010446E2F504110E2
:10163000456E30504210466E31504310476E935104
:101640000124D96E94510220DA6EDF50486E485062
:101650004410856F4550866F4650876F4750886F9E
:10166000040E9327000E942393510124D96E9451B4
:101670000220DA6EDF502B6E935101242C6E9451B0
:1016800002202D6E010E2C24D96E000E2D20DA6E54
:10169000DF502E6E2B50896F2EC08AF0020E9327DA
:1016A000000E942393510124D96E94510220DA6ED6
:1016B000DF502B6E935101242C6E945102202D6E1D
:1016C000010E2C24D96E000E2D20DA6EDF502E6E06
:1016D0002B508B6F2EC08CF0020E9327000E94239C
:1016E000080E9327000E942393C02BF094C02CF087
:1016F000000E2CBEFF0E2D6E2E6E05502B242F6E6D
:1017000006502C20306E07502D20316E08502E20B0
:10171000326EFB0E2F248D6FFF0E30208E6FFF0E6A
:1017200031208F6FFF0E3220906FFB0E9325916F4B
:10173000FF0E9421926F20EE69F000EE01F0290E69
:101740006F006FFFEBFFE806FBE2120064EC0EF0A7
:1017500078EC0EF0A7EC0DF014EC0EF0BA80D00E81
:10176000496ECA0EE82EFED7492EFCD7000E076E32
:10177000010E086E000E096E000E0A6E000E0B6E52
:10178000010E0C6E010E0E6E000E0D6ECCEC0CF008
:10179000000E016E010E026E010E046E000E036E4D
:1017A000000E056E010E066E000E076E000E086E2E
:1017B00014EC08F020EE99F0290E6F00AFFFDBFF6C
:1017C000E806FBE2400E94EC0EF0BDC095F0BEC002
:1017D00096F0BFC097F0C0C098F095C007F096C0D3
:1017E00008F097C009F098C00AF02EEC0EF010EF48
:1017F0000CF0000E076E010E086E45EC0EF00101B4
:101800000039E8461F0B94EC0EF0010E00019527FD
:10181000000E962397239823D50EE82EFED70000BE
:101820000001C151496EC2514A6E4B6A4C6A49501F
:101830009D5D4D6E4A509E594E6E4B509F594F6E56
:101840004C50A059506EBD514D24516EBE514E208A
:10185000526EBF514F20536EC0515020546E000E37
:101860005124556EFE0E5220566EFF0E5320576EB9
:10187000FF0E5420586E5550955D5650965957504E
:10188000975958509859D8A048EF0CF04AEF0CF0EF
:10189000F9EF0BF09EEC0EF0400E94EC0EF0520EB1
:1018A0004A6E2B0E496E000EE82EFED7492EFCD74D
:1018B0004A2EFAD700D0E5EF0BF0FEEF7FF0036E73
:1018C0003D0114BF66EF0CF068EF0CF0CBEF0CF0AD
:1018D0000350050DF3501D0F016E600007F0F6FF79
:1018E000100EF76EF86A08006F00D7FF14FD035062
:1018F000050D6F00CCFF01F0010E012601501D0FF8
:10190000026E60000BF0F6FF100EF76EF86A08002A
:101910006F00D7FF15FD0350050D6F00CCFF01F0E0
:10192000020E012601501D0F026E60000BF0F6FF43
:10193000100EF76EF86A0800F550FC0B166F035096
:10194000050D6F00CCFF01F0030E012601501D0FA5
:10195000026E60000BF0F6FF100EF76EF86A0800DA
:101960006F00D7FF19FD0350050D6F00CCFF01F08C
:10197000040E012601501D0F026E60000BF0F6FFF1
:10198000100EF76EF86A08006F00D7FF1CFDC496B2
:10199000148FCBEF0CF01200BC94000E5FEC0CF037
:1019A00060002FF0D9FF600033F0DAFF0B0EDF6E1E
:1019B00020EE01F00B50D9260C50DA22600027F0FF
:1019C000DFFF20EE02F00B50D9260C50DA22600027
:1019D00023F0DFFF20EE03F00B50D9260C50DA2263
:1019E00060001FF0DFFF20EE04F00B50D9260C50F2
:1019F000DA22DF6A0BC001F00CC002F0FB0E0D24EE
:101A0000036EFF0E0E20046E40EC0DF078EC0EF02D
:101A1000BC841200BA6ABB6ABC6A3A01426B526B60
:101A2000626BFA0EC26EC368DB0EC46EFE0E406FB0
:101A30005069C30E606F416B516B616B816B436981
:101A400053696369446954696469080E846F5A6B09
:101A50005B6B6A6B6B6B140EDF6F1F0E156F130ED3
:101A6000DE6F1E0E136F456B466B476B556B566BE7
:101A7000576B656B666B676B856B866B876B12004C
:101A800001C005F002C006F03D0117851A9D1651F0
:101A90000309166F0450136F60000FF012FD6CEF16
:101AA0000DF0600017F0D9FF60001BF0DAFFDF5087
:101AB000116F3901A2A95FEF0DF061EF0DF059EF41
:101AC0000DF0600017F0D9FF60001BF0DAFF6F0027
:101AD00043F4DFFF054A062A3D011AAD72EF0DF00F
:101AE00074EF0DF051EF0DF01200320EF66E1D0E78
:101AF000F76E000EF86E00EED1F010EE09F009005E
:101B00006F00D7FFEEFFE550E150F9E1440EF66EAD
:101B10001D0EF76E000EF86E09006F00D4FF5DF029
:101B200009006F00D4FF5EF000EE00F110EE00F14E
:101B3000EE6AE550E150FCE1E250FAE100EEC3F05C
:101B40000E0EEE6AE806FDE10001A6EF0BF0000EB6
:101B50005FEC0CF0BC84680E056EE40EE82EFED738
:101B6000052EFCD700D0BC945DC006F05EC007F027
:101B7000060E016E000E036E020E026ED0EC0DF02A
:101B800078EC0EF0BC84A00E00D0E82EFDD7150E28
:101B9000056EC60EE82EFED7052EFCD700D012002B
:101BA00001C004F03D0117851A9D1651FE0B020974
:101BB000166F0350136F60000BF012FDEEEF0DF087
:101BC0000450D96EDA6ADF50116F3901A2ABEBEF26
:101BD0000DF0EDEF0DF0E5EF0DF0042A3D011AAD2B
:101BE000F4EF0DF0F6EF0DF0E0EF0DF01200D29AE9
:101BF0003901A191D280000E016E000E026E8FECB1
:101C00000EF03901A591D282000E016E000E026E17
:101C10008AEC0EF03901A79BD284000E016E000EF3
:101C2000026E85EC0EF01200BC94000E5FEC0CF01E
:101C3000D6C00BF0D7C00CF0D8C00DF0D9C00EF054
:101C40000B0E016E026A000E046E040E036E40EC71
:101C50000DF078EC0EF0BC840B501200BC94000E1A
:101C60005FEC0CF00B0E0B6E09C00CF008C00DF011
:101C700007C00EF00F6A0B0E016E026A000E046EB2
:101C8000050E036E40EC0DF0120060001FF0D9FF4E
:101C9000600023F0DAFFDF6A07C001F008C002F03D
:101CA000000E046E010E036E40EC0DF012003901BF
:101CB000929D929B92993D01146B040E156F166BC9
:101CC000196B1C6B178512006FEC0EF00AEC0DF00F
:101CD0007FEC0EF057EC0EF0F7EC0DF01200600EFA
:101CE0003901D96FDB6BDD6B080EDF6FDE6B120025
:101CF0003D01149F3901929D929B92991200A00E72
:101D00003E019E6F0A0E9C6F120001C0DAF002C005
:101D1000DBF0120001C059F002C05AF0120001C0FD
:101D20005BF002C05CF01200016E600007F09CFEE8
:0B1D3000120052494646009F000000D0
:0A1D3C0078EC0EF0BC8412006699EA
:04FFFC0075EF0DF0A0
:020000040030CA
:0A0000008FFFF7FF9FFFFFFFFFFFD8
:00000001FF
